:020000040000FA
:10000000B8192020C1020000C5020000C70200008C
:1000100000000000000000000000000000000000E0
:10002000000000000000000000000000C902000005
:100030000000000000000000CB020000C5560000D8
:10004000CF020000FD3A0000CF020000CF02000006
:10005000CF020000CF020000CF020000CF0200005C
:1000600000000000CF020000CF02000000000000EE
:1000700000000000CF020000BD570000CF020000CA
:10008000CF020000CF020000F1560000CF020000B6
:10009000CF020000CF0200000000000000000000BE
:1000A000CF020000CF0200000000000000000000AE
:1000B000CF02000000000000CF020000CF020000CD
:1000C00000F002F800F0D1F812A030C80838241867
:1000D0002D18AC4201D100F0C8F80FCCA246AB46B7
:1000E0000CA730CF2D1B083F3F197C427F1E544484
:1000F0002D090426F441641EAC4201D300F0B5F88A
:100100000126334200D0FB1A3343984754465D46DC
:10011000DFE70000C4820000E4820000000000006D
:10012000103A02D378C878C1FAD8520701D330C840
:1001300030C101D504680C60704700000000000069
:100140007047000000000000002300240025002666
:10015000103A01D378C1FBD8520700D330C100D583
:100160000B60704710B56E2902D101F08BF910BDFC
:10017000702902D101F0C7FA10BD662902D107F03B
:1001800093FB10BD652902D107F08EFB10BD6729D6
:1001900002D107F089FB10BD612902D107F08CFB69
:1001A00010BD03681B0A01D380231943692902D1BA
:1001B00001F032F910BD642902D101F02DF910BD12
:1001C000752902D101F028F910BD6F2902D101F083
:1001D00045FA10BD782902D101F082FA10BDE92953
:1001E00002D101F0E1F910BDE42902D101F0DCF9FE
:1001F00010BDF52902D101F0D7F910BDEF2902D1C8
:1002000001F038FA10BDF82902D101F077FA10BDDB
:100210000368DB0901D380231943632902D102F06B
:100220004EF810BD732902D102F051F810BDE32938
:1002300002D102F05BF810BDF32902D102F05EF8A2
:1002400010BD002010BD1FB502F062F904000020AF
:10025000002107F01DF9401C60600020002107F01C
:1002600001F9E0601FBD10B510BD02F029F911467B
:10027000FFF7E9FF05F0A8FD02F0BEFC03B4FFF7AD
:10028000F2FF03BC02F072FD70B505460C4616463F
:1002900002E00FCC0FC5103E102EFAD2082E02D36A
:1002A00003CC03C5083E042E07D301CC01C5361F7D
:1002B00003E021782970641C6D1C761EF9D270BD94
:1002C00006480047FEE7FEE7FEE7FEE7FEE7FEE73B
:1002D00003480449044A054B70470000C100000070
:1002E000B8052020B8192020B8092020B8092020FE
:1002F0000FB41CB50C0007AA009007D04142A142E0
:1003000002D30019401E01E00020C043074B7B448C
:1003100069460190069801F0CEF80021002C01D02A
:10032000009A11701CBC08BC04B01847CB11000027
:10033000F8B5042A2CD3830712D00B78491C03701C
:10034000401C521E83070BD00B78491C0370401CC5
:10035000521E830704D00B78491C0370401C521EA8
:100360008B079B0F05D0C91ADF002023DE1B08C9AD
:100370000AE0FFF789FFF8BD1D4608C9FD401C468D
:10038000B4402C4310C0121F042AF5D2F308C91A36
:10039000521EF0D40B78491C0370401C521EEAD444
:1003A0000B78491C0370401C012AE4D409780170C1
:1003B000F8BD01E004C0091F0429FBD28B0701D559
:1003C0000280801CC90700D00270704700290BD042
:1003D000C30702D00270401C491E022904D38307C0
:1003E00002D50280801C891EE3E70022EEE700228E
:1003F000DFE70000002203098B4273D3030A8B421C
:1004000058D3030B8B423CD3030C8B4221D312E015
:1004100003460B437FD4002243088B4274D3030965
:100420008B425FD3030A8B4244D3030B8B4228D306
:10043000030C8B420DD30902FF2212BA030C8B422C
:1004400002D31212090265D0030B8B4219D300E0CC
:10045000090AC30B8B4201D3CB03C01A5241830B51
:100460008B4201D38B03C01A5241430B8B4201D301
:100470004B03C01A5241030B8B4201D30B03C01A2A
:100480005241C30A8B4201D3CB02C01A5241830AA4
:100490008B4201D38B02C01A5241430A8B4201D3D3
:1004A0004B02C01A5241030A8B4201D30B02C01AFD
:1004B0005241CDD2C3098B4201D3CB01C01A524164
:1004C00083098B4201D38B01C01A524143098B42ED
:1004D00001D34B01C01A524103098B4201D30B01D6
:1004E000C01A5241C3088B4201D3CB00C01A5241FB
:1004F00083088B4201D38B00C01A524143088B42C0
:1005000001D34B00C01A5241411A00D20146524158
:10051000104670475DE0CA0F00D04942031000D377
:10052000404253409C46002203098B422DD3030ACC
:100530008B4212D38901FC2212BA030A8B420CD3DC
:10054000890192118B4208D3890192118B4204D305
:1005500089013AD0921100E08909C3098B4201D385
:10056000CB01C01A524183098B4201D38B01C01ABF
:10057000524143098B4201D34B01C01A5241030936
:100580008B4201D30B01C01A5241C3088B4201D3E5
:10059000CB00C01A524183088B4201D38B00C01A92
:1005A0005241D9D243088B4201D34B00C01A524169
:1005B000411A00D201465241104663465B1001D3F6
:1005C0004042002B00D54942704763465B1000D380
:1005D000404201B50449002802DC491C084000E003
:1005E0000846C046C04602BDFFFFFF7F7047704708
:1005F000704700000246C80FC00781434B0030B56A
:100600004B405B009B0D20D01923DB06C91801234A
:100610001B05994220DB0324A40704251346AB40A5
:100620000BD3002B04D1EB0613409B00E34204D410
:1006300001246407002312195941FF231B05994225
:100640000BD2C9000143500F09E0CB0204D501438E
:100650000803024305D0054830BDFF21C905084302
:1006600030BD084607210905884330BD0000C07F22
:10067000F0B50C46871A9C410D46861A9D4103D25F
:10068000C01BA141D21963410D0D1F0DC94EEC1BBA
:10069000AE435CD07F057F0D0026002F51D02D0585
:1006A000AC46A943DD020123ED0A1B051D432023AF
:1006B0001B1B24D41746E740381871412F46E740EA
:1006C000CC199D402818314661410C0D27D1614459
:1006D0009A4013D50023401C594152000ED14008C6
:1006E000400001224B005205D34207D305204007AA
:1006F000C14201D5B04900E0B0493046F0BD6B00C1
:10070000002A00D001229A181F23203C1B1B01D570
:10071000002302E0E540281871410C0DD7D00124D8
:1007200024050919C407CD0740084908E40F2843E8
:100730006144002CD5D00024401C61419A40D0D1A6
:10074000CDE76A05520DD9D1C90FC907D5E79C4D30
:100750004E00002801D0012400E0002434195F007D
:10076000002A01D0012600E00026BE19954FAC42B8
:100770000CD8AE420AD8B44206D001256D05EC4231
:10078000BCD010461946F0BD9942FCD00020394635
:10079000F0BDF0B51FB40C460F46811A9F412546A7
:1007A000861A9D4106D20125ED076F40401ABC41D3
:1007B00052187B41210D1E0D8D1BAC467D4D8D4386
:1007C0007ED075056D0D7CD00D05AE46AC431B0388
:1007D0001B0B794D52429D41202366469B1B14D32F
:1007E0001746F740381800260090744160462F469F
:1007F0000741E41900989D402818664116D47146B7
:1008000071189A4025D5012320E093182A466A41A1
:100810005200002B00D0521C1E23203E9B1B002B9D
:1008200061DD3541EE1728186641E8D5001876419C
:100830005B1C9A4000D3401C4B05F3181524E34081
:1008400010D3002B52D071467118D30FC01802D3A9
:10085000491C05B0F0BD0123DB079A42F9D14008DD
:100860004000F6E701225205B21801D1002853D00A
:100870000123CC0ADB029943891E002A08D1020C0D
:1008800003D0020C0004103902E002460020203997
:100890000023550B05D112020823550B01D152013B
:1008A0000D23550C01D112011B1DD50C01D1920055
:1008B0009B1C150D01D152005B1C2025EE1A01E096
:1008C0002CE022E00546F54015439840CA1AE1079E
:1008D00069181305C918002ABBDA03204007081855
:1008E000C10FC9070FE071466118B2E7F107400870
:1008F0000843711071444A000CD001235B059A42F1
:10090000A7D2C90FC9070020A3E74905490D26D181
:10091000002001E00028F4D100219AE7284D66006C
:10092000002801D0012100E0002171185F00002A99
:1009300001D0012600E00026BE19224FA94210D89E
:10094000AE420ED8B14208D001256D05E94206D06D
:100950001946A802414010467BE79C4201D021463F
:1009600077E70020394674E710B50C465C4005D5A2
:100970000124E4076340FFF70CFF10BDFFF778FE8A
:1009800010BD30B40C465C4004D50124E40763403C
:1009900030BC6DE630BCFCE670B50124E407614074
:1009A0000D465D4002D4FFF763FE70BD6340FFF764
:1009B000F0FE70BDFF0700000000F0FF0000F07FB8
:1009C0000000E0FF0000F87FF0B5F94D0C091E09AA
:1009D0002C402E402F468BB0A7437DD0B543FCD092
:1009E000002E7AD0002CFCD00D465D40ED0F254343
:1009F000AC1BFF25AD0464190894C502440DC9025F
:100A00002143500DDC0204430120C007014304438D
:100A1000D2020191200C110C00958C460104234652
:100A20008B430A9161460904E24D8A430991010A08
:100A30007D4449198039097805464D4301266D18D2
:100A4000F605751B6943C90C640B891C4C4364187B
:100A5000B5012C1B250C2E04B4434C434D43210CF3
:100A6000691889090591009DE90701D00121C9078D
:100A700004912C4601996708CD072F434C08059D2A
:100A8000E10B4D432D0C29466646754302950D46F4
:100A900045432E46029D7D1BB44100950D465D43A6
:100AA00001942C0C2F040D465543AE462D0C3D43AE
:100AB000029503947546049C2D04641B049406D28D
:100AC000029C039D641C002675410395029401ACB1
:100AD00070CC009F7D1B01E03EE162E1B44109045E
:100AE0000095079101940599A4086143090C0C46EF
:100AF0004443650BE7040C4666467443A646640B04
:100B00003C43039502947446049DE4042C1B049416
:100B100006D2029C039D641C002675410395029435
:100B200001AC70CC009F7D1BB44101940C465C432A
:100B30000095650FE7000C465443A646640F3C43FE
:100B4000039502947446049DE4002C1B049406D281
:100B5000029C039D641C002675410395029401AC20
:100B600070CC009F7D1BB441AE09AF06049DC90047
:100B7000AD092F43049DA406AD060495079D34439B
:100B800069180791059DE10B4D432D0C29466646DA
:100B9000754302950D4645432E46029D7D1BB4418B
:100BA00000950D465D4301942C0C2F040D465543D2
:100BB000AE462D0C3D43029503947546049C2D04CE
:100BC000641B049406D2029C039D641C002675419C
:100BD0000395029401AC70CC009F7D1BB44101943D
:100BE0008C050694079C890A611800950791019C61
:100BF0000599A4086143090C0D464543680BEF04B1
:100C00000D46644665436C0B3C43049FED047D1B1D
:100C1000AC4602D20025641C6841009E019D371B32
:100C200085410846584301950C46460FC50054437C
:100C3000600F28436546E4002C1B02D20025401CAF
:100C40006E41019D3F1AB5412846BD0980062843E3
:100C50008446A009BF064E020699A40676180743EB
:100C6000079D002068410A99079019430020099BBD
:100C700000906046FF1913434041E20F64003A437D
:100C8000A4460446D71A8C41A04203D90120009003
:100C900020463A46C70F941840416246D20F22437D
:100CA000644664000494009CBE466400D71AA446BF
:100CB000044602978C417746002F01D1A04204D907
:100CC0006046401C8446029A2046C40FA6469418EB
:100CD0004041049A0546D20F224364466400D31A69
:100CE0008D417146002901D1A84202D928461A46F1
:100CF000641C10430122002800D01643610200202A
:100D0000079B891904465C410223002C02DB491829
:100D100013466441089DCE0A2D145D194B056705E5
:100D2000E10A2C050D1908993E43C9076940002BBB
:100D300008D0934006D30022761C5141002B01D1EC
:100D4000760876001C4A002D43DB154241D0AA43A9
:100D50003FD030460BB0F0BD06180D464D41174C44
:100D60007642AC411AD395181C465C41134A6D4239
:100D7000A24113D3012252054C00D4420AD15C0097
:100D8000D4420BD04B4002D592021143E2E7490016
:100D90004908DFE75940C90FC90718E00020084992
:100DA000D8E7054801420DD10342F7D0F2E7000031
:100DB0000000FF07946E00000000F07F0000E0FFDD
:100DC0000000F87F114859400143C0124140002003
:100DD000C0E70123089A9B069A4205DC03225207CA
:100DE0008918C90FC907B5E7052252078918074AAC
:100DF0001143D2125140ADE770B515461C4602466C
:100E00000B4628462146FFF7DFFD70BDFFFFFF7F41
:100E10001F22030C02D10F22000402D0030E03D0C4
:100E200004E00020014670470002083A030F01D198
:100E30000001121F830F01D18000921E002801DBE8
:100E40004000521E120551184205C01241181046AA
:100E50007047C10FC90700D04042012292071143D9
:100E6000D6E701218907D3E7F0B58B4C0F0925465A
:100E700089B0BD437BD01D092646AE43FAD00E464D
:100E80005E402740F60F3E43254071D024012142A9
:100E9000FBD0FF24AD19A4042D1B039501252D05BE
:100EA000DB02DB0AC9022B43C90A29431E010901DF
:100EB000040F130F050121431701880B820391438F
:100EC0002D098C46A90B1E438A039543B30B9A0345
:100ED00096433F09BA0B9403A74302962E467E43DE
:100EE0000497B6464E19D7190C46019654430597F8
:100EF0007E43371B7646BF1B3601B646BE0B3619FE
:100F000000967646BC043719009C01D3641C0094FB
:100F10006400002F01D001263443029E049F7543D4
:100F200066467E430496760034196E0034190094A8
:100F3000029C019E1C196643751BAE4606946546CD
:100F40004519059C05956C43594375460891691AE6
:100F50000191049E01465143A41B0491611A009C17
:100F60000791E10605D061090122114302E072E018
:100F70006EE06109089D00272C0A2D066918049D62
:100F80007C412A0A2D066918019D6241AC0DAD0213
:100F90006D185441079A910D920255196141029AB8
:100FA000644658435443069B059A5A43121A131B2E
:100FB0009A0E9B015B187A41010B0005C318514141
:100FC000220A200644195A419A4200D2491C0120A3
:100FD0004002814203D315230226F64302E0142384
:100FE0000326F6432020C51AA9401746AF40DA4031
:100FF0000A4320460399D84009147318190551185B
:10100000039A3843D2075140AC4009D001229440A2
:1010100006D30022401C5141002C01D14008400061
:101020001E4A934212D3012203989206904207DB94
:101030000520400709181A480143C012414004E046
:10104000032040070818C10FC907002009B0F0BDF0
:101050000020F107FAE705180C464C4111486D4293
:10106000A04115D394181A465A410E486442904143
:101070000ED301204A004005824209D35A00824221
:1010800006D35940C90F084AC90700201143DDE7BC
:1010900000200649DAE700000000FF07FE07000015
:1010A000FFFFFF7F0000E0FF0000F07F0000F87FFF
:1010B0000121C9050123411842001B06D3185B0E0C
:1010C0000AD0C1100722D206891840075242D142E5
:1010D00001D5520089187047090208D50146002A37
:1010E00003D0C10FC9070020704710467047420265
:1010F00002D0002002497047072109050143F4E7A7
:101100000000F87FF0B5FF252D04C609C209FF27AE
:1011100004462E400137CB093E4348402A402B402D
:101120000746002A6BD0002B69D0AA4267D0AB4299
:1011300065D0002800DA32460125ED0529432C430D
:1011400009022002090AD21A4B0C7F24E31A434CED
:10115000000A7C44E35C7D242404121914145B000F
:10116000A218884201D3521C00E0400049420C46BC
:101170005C4324115C43DB016415E318040A5C43FF
:10118000C502200D0C4644436419250A5D43230320
:10119000EC0C0D46654300030019EB184C42A342CA
:1011A00001D35B18401CD4052018002B07D05B002E
:1011B000C91804D3401C002901D1400840003F2138
:1011C00089048A4209D3002A08DC1106090F04D0D9
:1011D000032149074018C00FC007F0BD012241009C
:1011E000120689187F2252069142F6D2052149073C
:1011F000C84201D59010F0BDFF20C005F0BD002F02
:1012000000DA32461648AA4207D2AB4205D219028A
:10121000090E17D0F80FC007F0BDFF2563002D069B
:10122000AB42F9D84900A942F6D8AB4201D1A94254
:10123000F2D0A94201D1002101E061004908D005A6
:101240000843F0BD1102090EFBD0FF200243D00578
:10125000F0BD0A460146104654E70000F267000060
:101260000000C07F10B501469E240002CA15A307E6
:10127000002A02D01843002A04DBA21A002A0CDD3F
:10128000D04010BD1206120E01D140004008A21A33
:1012900003D4D04040420028F3DDFF22480012066C
:1012A000904201D9002010BDC817C043584010BD5E
:1012B0000102C21504D00123DB071943002A0ADB0F
:1012C0009E239A1A02D40846D0407047FF2241005C
:1012D0001206914201D900207047C017C0437047E1
:1012E0001F22030C02D10F2200041CD0030E01D1D7
:1012F0000002083A030F01D10001121F830F01D130
:101300008000921E002801DB4000521ED2055118B9
:10131000021251181922904004D3491C002801D10F
:101320004908490008467047C10FC90700D040422C
:10133000012292071143D3E701218907D0E710B5B5
:1013400000F0A2FB006810BD10B5044600F09CFB45
:10135000046010BD70B5044685690068C10601D5FA
:10136000302600E02026C00707D070BD62683046F6
:10137000A1689047206A401C20626D1EF6D570BDA2
:1013800070B5044685690078C00707D170BD6268F2
:10139000A16820209047206A401C20626D1EF6D56F
:1013A00070BD09684A0501D540B27047C905FCD532
:1013B00000B2704709684A0501D5C0B27047C90537
:1013C000FCD580B2704770B50C460546012A05D0A1
:1013D0002878800600D5EA69002302E0012305E0B1
:1013E0005B1C934202D2E05C0028F9D1A869E618A0
:1013F000C01AA861286AC01828622846FFF7AAFF09
:1014000004E06A682078A968641C9047B442F8D365
:101410002846FFF7B5FF70BDF7B5002575291068A0
:10142000009914A611D0FFF7BCFF002802DA404251
:1014300011A608E0009909688A0701D50FA602E005
:10144000490704D50EA6012501E0FFF7B3FF009F71
:101450000024243704E000F076FF30313955641C55
:101460000028F8D12B4632462146009800F04DFB6B
:10147000FEBD0000000000002D0000002B00000059
:101480002000000011680268006A530501D5087049
:1014900009E0D30501D5088005E0130602D5C2177F
:1014A00005C100E0086001207047000001694A1C86
:1014B00002610878704700B58FB002910021059154
:1014C000054901937944039111460490684600F060
:1014D00027F90FB000BD0000E5FFFFFF0CC9083978
:1014E0009A4202D2531C0B6010707047F7B5044645
:1014F000154686B02B487844002703C83E46009026
:10150000019111E007986A467100415A02A800F063
:10151000F9FE411C07D02178890603D5E269391804
:1015200091420ED83F18761C2078800602D5E069DB
:10153000B84206DDAE42E5DB07987100405A00284C
:10154000E0D1A069C01BA0612046FFF703FF15484A
:1015500078445A3803C800900020019116E04100F9
:101560006A460798415A02A800F0CCFE0590401C3C
:101570000AD0002505E0626802A8A168405D904796
:101580006D1C05988542F6D30498401CB042049027
:10159000E5DB206AC01920622046FFF7F1FE09B0A2
:1015A000F0BD000016650000F7B5D21D0025D20879
:1015B00015A6D200F52905CA11D0002A05DA0021A6
:1015C0004042914111A60A4608E0009909688B073C
:1015D00001D50FA602E0490701D50EA60125114647
:1015E000009F0024243704E000F052FA30323A55CC
:1015F000641C02460A43F7D12B4632462146009826
:1016000000F083FAFEBD0000000000002D00000085
:101610002B0000002000000070B504460021243497
:1016200008E05507D2086D0F303565545D072A4331
:10163000DB08491C15461D43F3D10468002310A2A2
:10164000250708D520252C400C4304D0C46901236C
:101650000CA2641EC46100F058FA70BD10B50446B7
:1016600021461068FFF7A6FE002302462046FFF73A
:10167000D3FF10BDD21DD108C9000CC9CCE70000B2
:101680000000000030000000F8B50F460188090591
:1016900002D5224C7C4402E0204C7C440E340546AA
:1016A0000021243508E016071209360FA65D6E5496
:1016B0001E0732431B09491C16461E43F3D122461E
:1016C00004780023240705D5702F06D0002901D007
:1016D0000223113200F019FAF8BD01231032F9E7A4
:1016E00070B504460D4621461068FFF763FE0023DF
:1016F000024629462046FFF7C7FF70BDD21DD3081A
:10170000DB000CCBC0E730B403682024126823430D
:1017100003600823C36130BC0023B5E78063000089
:10172000F3B50446002081B020622046E168884776
:10173000002872D0252802D06268A168ABE0594F1A
:1017400000267F442046E16888472028054608DBBC
:10175000312D06D2781920380078002801D00643B0
:10176000F0E7B00701D5042086430020E06107467A
:10177000A0612A2D0AD0284604F0E1FF002827D0D6
:10178000B8000019303D0090856119E00298BA0058
:10179000121902C8916102902046E1688847012F22
:1017A000054617D1E06900281FDA202086431CE097
:1017B00000980A21806948430099401930388861AF
:1017C0002046E1688847054604F0B9FF0028EFD1BC
:1017D000012F0AD02E2D08D12046E1688847054602
:1017E000202006437F1C022FC3DBA069002803DAF8
:1017F0004042A06101200643F00701D0102086433B
:101800006C2D0BD0682D09D04C2D3CD06A2D38D0D2
:10181000742D38D07A2D36D016E040E0E1682F469E
:1018200020468847B842054609D16C2F29D00120AF
:101830008002E168064320468847054604E06C2F95
:101840001DD0FF2001300643002D28D02846413806
:10185000192803D80120C0020643203520462660FF
:101860002946029A1646FEF77DFC002810D0012872
:101870000BD0F61DF008C0000830029055E740205C
:10188000E1E78020D5E70020D3E7361D02964CE73C
:1018900062682846A1689047206A401C44E7206A95
:1018A000FEBD0000FA62000070B505464800440D18
:1018B000124B0020002C0AD0634008D09A4206DA6E
:1018C0006642B24203DD12054019514170BD002C41
:1018D00008D0002B09D0C90FC907002AF6DB084A37
:1018E000114370BDC90FC90770BD28460A031043D4
:1018F00002D00020034970BD284670BDFF070000DC
:101900000000F07F0000F87FF0B53D4B02460C462A
:101910001C400020002C63D03A4D8B4366D0002938
:101920006BDB0B0D1D05A94301252D052943012462
:10193000FD33E34001D392184941FF3381339C4684
:101940008B02940D0121234389074C429202002708
:101950001B198C105D1A04D42D1B02D42B46650074
:10196000491992185B416408F4D15C1A08D4012526
:10197000ED07EE175519744102D42A462346491C37
:1019800094185B41012292071D46E61B8D4106D447
:10199000B61A854103D42B46550034467F192419C5
:1019A0005B415208802AEFD1234300D002233846FE
:1019B0000A22D04001D3012213438A051043624614
:1019C000890A12058918002B09D00122D34002D3BD
:1019D0000022401C5141002B01D140084000F0BDC5
:1019E0000B03134307D0C90FC907F0BD0803104309
:1019F00003D1002901DB1046F0BD00202946F0BDCF
:101A00000000F07F0000F87FC10D10B50906090E37
:101A10002ED0FF2931D07E292DD319D0962916D268
:101A2000024675398A4005D0002402468A4003D315
:101A3000012302E00124F8E700230222CA41511EDB
:101A40008843002B03D08018002C00D0904310BD99
:101A50000121420201D1012200E00022C00FC00793
:101A60000029F4D0002AF2D17F21C905084310BD16
:101A7000C00FC00710BD0021EFE74102FAD00148B6
:101A800010BD00000000C07F0048704710002020FB
:101A90000B4670B5024689078008084319469D0821
:101AA000141AA94125090807054308092C194841BA
:101AB000250A01060D43010A2C194141200C0D0491
:101AC00028430D0C00194D41002140194D41C0081B
:101AD00069070843E908840F8D0025438400241812
:101AE0004D4124196D41121BAB4107E00925ED431F
:101AF0002C11521963410024401C61411C460A25E7
:101B00000026551BB441F1D270BDFFB504460D4609
:101B100081B0243000902168880604D51022E06945
:101B20009143216000E00120A84201DD471B00E055
:101B300000270498A1697A191018081AA061207862
:101B4000C00602D42046FFF705FC002608E00398F3
:101B50006268A168805D9047206A401C761C206204
:101B600004988642F3DB2078C0060AD52046FFF7AA
:101B7000F1FB06E06268A16830209047206A401CB3
:101B8000206238467F1E0028F4DC07E00098626877
:101B9000A168405D9047206A401C206228466D1E67
:101BA0000028F3DC2046FFF7EBFB2078000602D587
:101BB000022005B0F0BD0120FBE70000FFB50C4698
:101BC0001E468FB003CA089009914F007D0D00D1C9
:101BD0006D1E002108460020C0460321099A890590
:101BE0000840002A03DA8200801840080840800D6F
:101BF00001280A9002DD0020C0430A90089807439C
:101C00000DD0F048F04928184843071418980028C8
:101C10001DD07542291E1DDD0A9842421BE018980E
:101C2000012802D00020302104E00020F24305E02A
:101C30002154401CB042FBDB30460022189B00219F
:101C400021540F998B600A60486013B0F0BDBD1B32
:101C50006D1CDFE70A9A002900DA69420BA800F040
:101C60009FFC0BAB07CB03AB07C30899099800F0A7
:101C700003FD6B4607C30146D4480918002D0091A7
:101C80000BDDD24903980A9A49424018002303A960
:101C90000390684600F060FF08E003990A9A002369
:101CA000081803A90390684600F000FF6B4607C3BD
:101CB0000004000C03D00020C043410800E010469F
:101CC000189A002A03D00022009215461EE0751EC5
:101CD00005D4FFF7DDFE303262556D1EF9D50122C5
:101CE0000843079602D000227F1C04E020783028A9
:101CF00001D100227F1E002A069787D01EE0112DF9
:101D000007DAFFF7C5FE303262556D1C02460A4302
:101D1000F5D1084303D00098002819D00EE0002127
:101D2000681E05E0235C625C63542254401E491C1B
:101D30008142F7DBA81B401E07950690079A189969
:101D40000020A0540F98079B069A81600CC07CE786
:101D500011260020189059E7D21DF0B50D46044613
:101D6000D10893B0C90003C90C900D9104F01EFB7B
:101D700002460D98C00F01D02D2007E02068810792
:101D800001D52B2002E04007C00F4001032A0F902D
:101D900001D0072A05DB03462946204600F0BCFB9C
:101DA0000EE12078800601D5E76900E00627284685
:101DB000652D04D0662814D0672D69D12DE0002050
:101DC000112F009001DB112300E07B1C0CAA03A95A
:101DD00010A8FFF7F3FE1199002610987D1C0E91B4
:101DE00042E001203B460CAAC0070B900120009066
:101DF00003A910A8FFF7E2FE119D12981099002682
:101E000000280E9501D1781C0D18781B02D446428B
:101E10007D1C761EE81B00903AE0012F00DA0127B6
:101E20000020112F009001DD112300E03B460CAA99
:101E300003A910A8FFF7C2FE11993D46109800268D
:101E40000E91217809070BD40E99A94200DA0D46AC
:101E500003A9012D04DD4A19203AD27F302A06D089
:101E6000B84201DA011D04DA012100910FE06D1E74
:101E7000EFE7002802DC86192D1A03E0411CA94275
:101E800000DD0D46801B401C00900120C0070B9018
:101E90002078000705D40098A84202DB0020C04348
:101EA000009069460020C8720B98012102AF0337E9
:101EB000C907884225D0022010902B2011900B9842
:101EC00000280BDA40420B902D20119006E00B9871
:101ED00000F039FA30317F1E0B9039701099481E8E
:101EE00000291090F3DC0B980028F0D111987F1E88
:101EF00038702088000501D5452000E065207F1E50
:101F0000387001A8C01BC01D0B900F98002800D08E
:101F1000012041190098C01709180B980818A169E9
:101F2000081A401EA0612078C00602D42046FFF7A0
:101F300011FA0F98002805D06268A1689047206ABE
:101F4000401C20622078C00625D52046FFF702FA03
:101F500021E0002E07DB0E98B04204DD03A8626882
:101F6000805DA16802E06268A16830209047206A25
:101F7000761C401C20620098401E002800900AD168
:101F800000F0C6FAC06862680168405CA1689047CA
:101F9000206A401C206228466D1E0028D9DC07E01C
:101FA00062683878A1687F1C9047206A401C2062D4
:101FB0000B99481E00290B90F2DC2046FFF7E0F950
:101FC000032042E601FCFFFF104D0000E1DFFFFFB0
:101FD000D21DF0B504460D46D0088DB0C00046684D
:101FE00007683146384604F0E1F90246F00F01D0A7
:101FF0002D2307E02068810701D52B2302E040074D
:10200000C00F43016846002B037001D0012000E09F
:102010000020032A0A9001D0072A04DB2946204623
:1020200000F07AFA2DE12078800601D40D2500E039
:10203000E5697000400D0D2D01904BDA300D002147
:102040000B9008460020C046032189050840002E59
:1020500005DA82008018C20F101840100840801561
:10206000012801DD0020C043A9000023182906D360
:102070009C460A460123183A1B07D34003E001227D
:102080001205CA4094460C31202902D33A46203921
:1020900000E032468A40002802DD002A06D119E01D
:1020A000002817D10121C9078A4213D31946634674
:1020B0007F185E41002806D10120C007824202D16C
:1020C000084687439E430B98310D814202D0019808
:1020D000401C01902088000502D57149794402E036
:1020E0006F49794419396B460A9830221A540A9874
:1020F0000A7C401C1A54401C0A900198002801DCFC
:10210000302000E031201872019A0120002A02D00C
:10211000644BD21804E072003A4302D0614A521C68
:102120000192002D02DC2278120703D56A462E2088
:10213000507202200022864694460CE0320336019B
:10214000120F6D1E8B5C02AA13546246521C401C77
:102150009446052A01DA002DF0DC002202AE08E0E8
:102160003B0F3F01CB5C521C6D1E3354401C082AB0
:1021700001DA002DF4DC23689A0601D511E0401E37
:10218000704504DD3218203AD27F302AF7D000287B
:1021900007DD3218203AD27F2E2A02D11A0700D446
:1021A000401E002D03DD3E223254401C6D1E497C32
:1021B00031540199401C002906DA2D21471C315465
:1021C00001984042019003E02B21471C31540198B3
:1021D0007D21C900884206DBFEF71AF93030F05540
:1021E0007F1C019101E0642808DB01986421FEF75F
:1021F0000FF93030F0557F1C019101E00A2806DB11
:1022000001980A21FEF704F93030F0557F1C01983F
:102210000A21FEF7FDF83031F1550A98A1697F1CBB
:102220007A191018081AA0612078C00602D4204636
:10223000FFF790F8216A6E460A980818206204E0B9
:1022400062683078A168761C90470A98401E0A9010
:10225000401CF5D12078C00602D52046FFF77AF859
:1022600002AE09E03078761C3E280DD06268A16885
:102270009047206A401C20627F1EF3D22046FFF761
:102280007FF80DB00320F0BD206A4019206203E002
:102290006268A168302090476D1EEDD3F8E700001A
:1022A000B359000001FCFFFF10B54369002B02D0B9
:1022B000C046C04601E0FFF786F8012010BD127845
:1022C000014624310A7000224A700122ECE71168AD
:1022D0000022D243E8E710B54369002B02D0C04684
:1022E000C04601E0FFF702F9012010BD1288014647
:1022F000243182840022C2840122ECE7116800228A
:10230000D243E8E7F8B516460C46054600F0F8F863
:102310000368FF200230C05C012807D0FF2C0FD8D3
:10232000185D00280CD001202C70F8BDFF33324618
:10233000214608331868C71828460023B847F8BD57
:102340000020C043F8BD01468008081A0209101891
:10235000020A1018020C1018C0088200121852004D
:10236000891A01E0401C0A390A29FBD27047000093
:10237000F8B5264C4E00069DA6420AD8A64201D1C9
:10238000002806D15E00A64203D8A6420AD1002A40
:1023900008D00D242404254233D02946002000F023
:1023A00033FCF8BD0C461C4311D4994207D0C81A1F
:1023B00002D3EFF30080F8BDEFF30080F8BD801A80
:1023C00002D3EFF30080F8BDEFF30080F8BD0924DD
:1023D0002407E5008B4207D0581A02D3EFF30080A0
:1023E00006E0EFF3008007E0101A03D3EFF300805C
:1023F000A04303E0EFF30080A043284380F300886C
:10240000F8BD009500F018FCF8BD00000000E0FFEA
:1024100010B5FF231B0644009C421DD84C009C4273
:102420001AD80346124A0B4307D4401A02D3EFF3DB
:10243000008010BDEFF3008010BD081A03D3EFF346
:102440000080904305E0EFF3008001219043C9072D
:10245000084380F3008810BD0D231B041A4204D0EA
:102460001146002000F0D0FB10BD00F0EFFB10BDC6
:102470000000009010B5FF22C30D134009D05A4050
:1024800007D0914205DA5C42A14202DDC905081875
:1024900010BDC40FE407002B06D0002A06D0002987
:1024A00002DBFF20C0050443204610BD4102FCD0E2
:1024B000004810BD0000C07F004870471000202079
:1024C0007546FFF7F9FFAE46050069465346C0085A
:1024D000C000854618B020B5FDF7FAFE60BCB646D0
:1024E00000260027C0C5C0C5C0C5C0C5C0C5C0C581
:1024F000C0C5C0C5403D490849008D467047000031
:1025000010B500F005F8001D10BD00BF854F00009C
:102510000048704730002020F8B51F4604460123CC
:102520000068DB02032601461840072A05DB002865
:1025300001D017A506E017A504E0002801D016A5D4
:1025400000E016A5102081432160A069C01E002F65
:10255000A06101D0401EA0612046FEF7FBFE002FC7
:1025600009D038466268A1689047206A401C206202
:10257000C01C206206E0206AFAE762682878A16839
:102580006D1C9047761EF8D22046FEF7F9FEF8BD86
:102590004E414E006E616E00494E4600696E660007
:1025A000F7B516468AB0334878446C4603467C3308
:1025B000C06F5A689B680DC42E487844763003ACCF
:1025C0000DC80DC43720C001081837211B30FDF796
:1025D0001FFF05460C46803D1B3C02D5644201208E
:1025E00000E000200027099010E0E0070CD00C204C
:1025F00020497843794432464C39411868460123D2
:1026000000F054FA6B4607C364107F1C002CECD119
:10261000184F7F442E3F16E0E80712D02001C01962
:102620000EC80691089307920068F04201D19819EC
:1026300008903246012306A903A800F037FA03AB3D
:1026400007C36D10641C002DE6D10998002806D040
:1026500032466946012303A800F07EFA05E0012313
:102660003246694603A800F021FA0A9B07C30DB061
:10267000F0BD0000FC540000034640000A4610B5BF
:10268000400D0BD00121C9070F24A40200191C031F
:1026900064082143540D2143D20207E000210120A8
:1026A000F2E7D40F490021435200401E0029F8DA16
:1026B000DB0FDB07184310BDFFB50D46144685B090
:1026C0004868516803F059FE00910190A868A1681C
:1026D00003F053FE02910390A868616803F04DFE79
:1026E000029A12188242029201D2012000E00020D8
:1026F000019A0B18D2180028019202D08A4202D9FE
:1027000003E08A4201D2012000E00020009908186D
:1027100000906868A16803F030FE029A12188242A5
:10272000029201D2012000E00020019A0B18D21879
:102730000028019202D08A4202D903E08A4201D2E3
:10274000012000E000200099081800902868216806
:1027500040004900400849084018FA49471814E069
:1027600001994000C90F0843009001980299400068
:10277000C90F08430190029803994000C90F08430C
:102780000290039840007F1E039000980028E7DA2B
:102790000898002801D0EC4E00E00026B74201DA8C
:1027A000012000E00020002804902AD0F71BF80642
:1027B000C00E15D0029B2021091A039A8B401A43A0
:1027C0000392029A019BC2408B401A430292019AE3
:1027D000009BC2408B4000991A430192C140009176
:1027E0007B110DD06F460320C11A03D50021820052
:1027F000B95003E08A008100BA587A50401EF3D5E0
:10280000374603980299002800D001200143089818
:102810000291002808460CD0002800D00120019920
:10282000019A490508430121D20AC902D202019244
:1028300000E001210E9B0122D207012B02D0002BC8
:1028400003D013E0002807D120E0904204D8904242
:102850000CD1019B0B4209D0019B5918019105D164
:102860000099491C009101D17F1C009200280DD0D5
:10287000102108460020C0460498002806D00F9872
:10288000002803D0082108460020C0462868216897
:10289000019B009A4840C10F0598C90739430EC0F3
:1028A00009B0F0BDFFB587B0099A08980899536838
:1028B00092684068896896460022039317469446BA
:1028C000089A12685300099A5B081268520052086D
:1028D0009A1A9E4BD4180A9A002A01D0352200E099
:1028E000402206920022012315460492DB0705933D
:1028F00024E0002D05D175460346039E4D1BB341D0
:1029000009D375466646039B491B049D9841059B68
:102910007519AC465F4163463B4308D0059B049E56
:10292000DD0776082E435B080496059301E0521EEE
:10293000641EC50FED0749184041521C069B9A4280
:10294000D7DB002D04D17546039A6B1A824101D260
:1029500003200CE0039A0B466B404240134303D024
:10296000014303D0012002E0022000E00020614684
:1029700001910021009702910A99002905D0614632
:1029800040020143704B019102E080070023029056
:102990009C4201DA012000E0002007003AD01A1B17
:1029A000D006C00E15D0029D2021019C091AC540F9
:1029B0008C402543029C8C4000D001242543019C7F
:1029C0000295009DC4408D4000992C430194C14064
:1029D000009154111DD06D460221002202290CD114
:1029E0000320001B07E0002804DB8600AE59002E00
:1029F00000D00122401C0328F5DB081B02D588000B
:102A00002A5004E08000285810438A00A850491E2C
:102A1000E3D51C460A98002802980CD0002800D064
:102A200001200199019A490508430121D20AC902EE
:102A3000D202019200E00121109B0122D207012B5A
:102A400002D0002B03D013E0002807D11FE09042F2
:102A500004D890420CD1019B0B4209D0019B59181C
:102A6000019105D10099491C009101D1641C00928B
:102A700000280CD0102108460020C046002F06D0A8
:102A80001198002803D0082108460020C046089865
:102A90000999019A009B006809684840C10F07988E
:102AA000C907214382600AC00BB0F0BD00B585B0F4
:102AB000019300920A460146002302A8FFF7FCFD9D
:102AC00002A807C805B000BDFFB50A461F4685B07D
:102AD0000799019301230091014602A8FFF7ECFD3D
:102AE00002990398049ECA0F4900D20700920F2250
:102AF000490892028C1A0021002800DB0C46450090
:102B000013486D08844214D3079A002A04DA441E3D
:102B10000026104DF64302E004460D460E461021F5
:102B200008460020C046002F03D00421084600209C
:102B3000C0462005E90A0843009908436905F20ADE
:102B40001143ADE602C0FFFF013C0000FF3F000063
:102B5000FF070000FFFFFF7F00B585B001930092E3
:102B60000A460146002302A8FFF79CFE02A807C8F8
:102B7000A8E7FFB50A461F4685B0079901930123D0
:102B80000091014602A8FFF78DFE02990398049E6A
:102B9000CA0F4900D20700920F22490892028C1AEC
:102BA0000021002800DB0C46450011486D088442D6
:102BB00014D3079A002A04DA441E00260D4DF6436A
:102BC00002E004460D460E46102108460020C0468D
:102BD000002F03D0042108460020C0462005E90A42
:102BE0000843009908436905F20A114358E60000BA
:102BF000FF070000FFFFFF7F10B50446C046C04638
:102C00002046FDF73BFB10BDC80212D54803400F1C
:102C1000002804D0C803C043012188407047EFF367
:102C200000800001000903210907084380F30088A0
:102C3000704700207047000010B500200249029A3A
:102C400000F064F810BD00000000F87F10B50248E5
:102C500000F05CF810BD00000000C07F82078B0709
:102C60009A423FD170B5920F0AD0032402780B78B4
:102C7000401C491C002A33D09A4231D12042F5D160
:102C8000214EF40104C808C9951B9543254018D16D
:102C90009A420FD104C808C9951B9543254010D10D
:102CA0009A4207D104C808C9951B9543254008D10D
:102CB0009A42E7D012BA1BBA01209A4200D240428F
:102CC00070BD12BA1BBA2DBA18241000E0401900CA
:102CD000E140401A05D12E00E64002D1083CF4D173
:102CE000D01A70BD02780B78401C491C002A09D00C
:102CF0009A4207D102780B78401C491C002A01D067
:102D00009A42EFD0D01A70470101010110B50C466C
:102D10001107090F092904D00A290AD008290CD162
:102D200004E011460820FFF76FFF06E0510606D5C4
:102D300001E0510601D50120C007214610BDD10692
:102D400007D501010909CC084907000E0006044314
:102D500009E0410F20024907000A0143200E000646
:102D60001D22D14101430846E7E700000149182030
:102D7000ABBEFEE726000200704784B002900191CE
:102D800000200090FFE700980199884210DAFFE7E1
:102D9000029800994900405A002804D0FFE703A98F
:102DA0000020087008E0FFE70098401C0090EAE768
:102DB00003A901200870FFE703A8007804B070475A
:102DC00080B582B0124800F00FFD014601A80170E5
:102DD000007800F05DFD0F48007801280AD1FFE778
:102DE0000C49002008700C4801F016F90B4801F05E
:102DF00090FFFFE708480A4A0A4B022102F032FD21
:102E00000648094A094B082102F02CFD02B080BD9A
:102E100000201040480420207A0020205C0120205F
:102E200004002020000020200C002020080020208A
:102E300082B00A46014601A8017069460A7000780E
:102E400000020978401802B07047000010B598B031
:102E500062480078C00700280BD0FFE7664817904B
:102E6000624966480860012081055D4800F024FA47
:102E7000B1E0012081055A4800F000F902F02AFE75
:102E8000169058480068C117890F411803229143D2
:102E9000401A1590032800D99BE01598810001A0E5
:102EA00040588746B52E00000D2F0000452F00002A
:102EB0009B2F000000F0C4FD0F9010914C4801685A
:102EC0003F20000604F088FCFEF7F2F802460F9857
:102ED0000B4610990124E407A343FDF7C5FF1190A9
:102EE00012911698FEF7E4F80246119813920B46D9
:102EF00012991493FDF768FD139A149B6140FDF736
:102F000063FDFDF777FB3949086063E000F098FD49
:102F10000022384BFDF7A8FF0B900C911698FEF796
:102F2000C7F802460B980D920B460C990E93FDF7CD
:102F30004BFD0D9A0E9BFDF747FDFDF75BFB2B4903
:102F4000086047E000F07CFD059006912848016884
:102F50003F20000604F040FCFEF7AAF80246059860
:102F60000B4606990124E407A343FDF77DFF079074
:102F700008911698FEF79CF80246079809920B46AE
:102F800008990A93FDF720FD099A0A9BFDF71CFD9D
:102F9000FDF730FB154908601CE000F051FD0022F0
:102FA000114BFDF761FF019002911698FEF780F832
:102FB0000246019803920B4602990493FDF704FD23
:102FC000039A049BFDF700FDFDF714FB0749086019
:102FD00000E0FFE7FFE718B010BDC04670052020F5
:102FE00000200A40E40120200000E0BFDC01202096
:102FF000580520200000E03F0000F0420000F0C231
:10300000811E091F00BFFCD2704784B0039002915B
:1030100001920398006800900098019988430090FD
:1030200000980299019A114008430399086004B07E
:103030007047000082B001900091009B0199094AFD
:1030400088581843885002B07047C04682B001903B
:103050000091009B0199034A88581843885002B098
:103060007047C0464810000082B00190009100985F
:10307000019995225201885002B0704782B00190A8
:1030800000910098019995225201885002B0704732
:1030900082B00190009100980199952252018850C8
:1030A00002B0704782B0019000910098019995227A
:1030B0005201885002B0704782B001900091009890
:1030C000019995225201885002B0704782B0019058
:1030D00000910098019995225201885002B07047E2
:1030E00082B001900091009B0199C24A8858184310
:1030F000885002B07047C04682B00190009100989D
:103100000199024A885002B07047C046D0120000B0
:1031100081B0009000990120C202BC48885001B0E3
:103120007047C04682B00190009101980249405812
:103130000099084002B070473810000010B584B004
:10314000069C039002910192009302990198014319
:1031500000980143069A012003071A401143084AC8
:103160001143039A9300244A9950069BC0060340DA
:103170000398810088581843885004B010BDC04699
:103180008100040081B00090009881001A4A8120DB
:10319000885001B07047C04610B584B0069C0390BB
:1031A0000291019200930298019908430099084303
:1031B0000699084381210843039989000E4A8850E3
:1031C00004B010BD82B001900091009803490843FB
:1031D00001998900084A885002B0704780000400B5
:1031E00082B00190009100988021084301998900E4
:1031F000014A885002B070470480424082B001907A
:10320000009101982721C90140580099084002B057
:10321000704782B00190009101982721C901405860
:103220000099084002B0704782B001900091019867
:103230002721C90140580099084002B0704782B068
:103240000190009101982721C90140580099084038
:1032500002B0704781B000900099024A024888503D
:1032600001B0704704080000030000B182B0019073
:103270000091009B0199034A88581843885002B076
:103280007047C0460815000082B001900091009B75
:103290000199034A88581843885002B07047C046C5
:1032A0009013000082B00190009100980199164A95
:1032B000885002B07047C04682B0019000910098DB
:1032C0000199114A885002B07047C04682B00190FF
:1032D0000091009801990C4A885002B07047C0468E
:1032E00082B00190009100980199074A885002B07D
:1032F0007047C04682B00190009100980199024A3F
:10330000885002B07047C0469012000082B0019011
:103310000091009B0199034A88581843885002B0D5
:103320007047C0460C15000082B001900091009BD0
:1033300001999D20420188581843885002B0704777
:1033400006490868012290430860704703490868ED
:1033500001221202904308607047C04608010B40EA
:1033600081B001466846017000780249086001B0EA
:103370007047C04608030B4080B582B0014601A8E3
:10338000017001780F480F22FFF73FFE02B080BDA9
:1033900080B582B0014601A801700178024803227D
:1033A000FFF733FE02B080BD00010B4080B582B054
:1033B000014601A80170017802483022FFF725FE7E
:1033C00002B080BD04010B4081B000900099024A18
:1033D0000120885001B070470811000082B00190B0
:1033E0000091009B0199E24A88581843885002B026
:1033F0007047C0462810000081B00090009901205D
:10340000C202E148885001B07047C0460100002662
:1034100081B000900098812149014058C0B201B0AC
:1034200070470000F0B5C54A82183B4BC3180879B5
:103430004E793A4D7B4C002E23D0202804D005260F
:10344000F601002803D003E0354E002800D188267D
:10345000576F2F4037435767976F2F403743976712
:10346000566B26405663966B26409663002656653B
:1034700096658F26F6435F6837405F609F683740E8
:103480009F608E79096820280BD0002819D1491E29
:103490005160D76E2F4088210F43D766174670378B
:1034A00019E0491E5160D16E29401D4F3943D16644
:1034B000116F29403943116701214907194D1746FA
:1034C00009E049085160D76E2F400521C9010F431B
:1034D000D766174670373C682C400C433C60D16A75
:1034E000504C2140D162116B214011630021D16405
:1034F00011658F21C943D46F0C40D4671C680C4000
:103500001C600643BD2030401168074B0B40C018BB
:10351000801C1060F0BDC0468418000024493E00A5
:1035200001040000FFFFFFCF4000FFCFB0B54A68A5
:10353000724BC250814A80180A78222A58D89300C8
:1035400001A4E3589F46C046E7350000F13500006E
:10355000E7350000F1350000F1350000F1350000DD
:10356000F1350000F1350000F1350000F1350000C3
:10357000F1350000F1350000F1350000F1350000B3
:10358000F1350000F1350000D5350000F1350000BF
:10359000D5350000F1350000F1350000F1350000AF
:1035A000F1350000F1350000F1350000F135000083
:1035B000F1350000F1350000F1350000F135000073
:1035C000F1350000F1350000D5350000F13500007F
:1035D000D535000003231B0704689C4301235B07C8
:1035E000E318036004E003231B0704689C430460A2
:1035F0000B69C360CB680A4C1C40C36A094D1D406F
:103600002B19C3620368084C1C400460097A1143FB
:103610003F2211400368934359180160B0BDC04672
:10362000777702008888FDFF7F00FFFF81B0009060
:103630000099764A7648885001B0704782B0019070
:1036400000910098019911221202885002B070472F
:1036500010B507239B04194092008018024A845831
:103660009C436118815010BD3018000010B5029CB9
:10367000A400001911431943014A815010BDC046EE
:103680005018000092008018014A81507047C046CF
:103690001018000010B50122120383180C789C60EA
:1036A0004B7883508978014A815010BD0C1100007D
:1036B00010B586B001930B4601460198059104A907
:1036C0000B8003AB1A8002AA108005981B4C0019CE
:1036D00009881B88194312881143024AFFF795FC99
:1036E00006B010BD80FF000082B0019000910098EC
:1036F0000199024A885002B07047C046081800007D
:1037000081B0009000990D4A8858012318438850D1
:1037100001B0704781B000900099084A8858012391
:103720001843885001B0704781B000900099034A57
:10373000885801231843885001B0704704180000CE
:1037400081B000900099112002028858012318438B
:10375000885001B07047000082B001900091009B3A
:103760000199034A88581843885002B07047C046F0
:103770002810000081B0009000990120C202024888
:10378000885001B07047C0460100002681B000900B
:103790000098812149014058C0B201B07047000033
:1037A000B0B51122120283580124A34383500B8821
:1037B0008C781C438B882343094C1C408358094D4B
:1037C0001D40631983508B79CC791C43097A2143BE
:1037D0007E231940801842689A4351184160B0BD59
:1037E00018670000E798FDFF81B00090009802493B
:1037F0004058C0B201B070472411000081B0009061
:103800000099024A0248885001B07047040800003D
:10381000030000B180B584B0039002910192039837
:103820000B49401802990B4AFFF7EFFB03980A492E
:10383000401801993F22FFF7E8FB0399074A8818CF
:10384000895801221140FFF7E0FB04B080BDC0465B
:1038500010110000FFFF000014110000041100000F
:1038600010B50122120383180C789C6049788150AE
:1038700010BD80B582B0019000910198112109021C
:10388000401800990322D203FFF7BFFB02B080BDAE
:1038900080B584B0014603A80170007812280BD1CE
:1038A000FFE730490120087003982F4B1A78511C0C
:1038B00019702E49885453E02A48007800280DD109
:1038C000FFE700212B484056012801D1FFE747E0E0
:1038D0002849032008702849087041E00398224BCA
:1038E0001A78511C19702149885403A800785B2864
:1038F0001AD1FFE71B490020029008701A4908708E
:10390000BA481A49019164220092FCF711FD00990E
:103910000198174B01221A70FCF767FD02981549B0
:10392000087015490870FFE70F480078642816DB17
:10393000FFE700210F484056012806D0FFE70D4958
:10394000032008700C490870FFE706490020087042
:103950000549087005486421FCF747FDFFE7FFE7CC
:1039600004B080BD70002020710020207401202050
:1039700048042020040020200C00202085B0029064
:10398000EFF3108072B604909B480068019062B615
:10399000FFE7EFF3108072B603909748006800903D
:1039A00062B600980199401A0299884201D3FFE754
:1039B00000E0EEE705B0704786B005901A48006851
:1039C000049020200390059903984843029000201A
:1039D00001900298002801D1FFE722E0FFE712489A
:1039E000006800900098049988420BD9FFE704987A
:1039F0000E49096840180099401A01994018401C66
:103A0000019006E004980099411A0198401801902D
:103A1000FFE700980490FFE7019802998842DED3FF
:103A2000FFE706B07047C04618E000E014E000E091
:103A30005B4880687047C0465948007B7047C04665
:103A400080B586B0FFF7F4FF0590FFF7F5FF01465C
:103A50000020C043029001200029039001D0029869
:103A60000390039804900598FDF7F3F90C4A0D4B69
:103A7000FDF7FAF9009001910498FDF7EAF9024682
:103A800000980B460199FDF7EFF9074A074BFDF740
:103A9000EBF9074A074BFDF7E7F906B080BDC046D2
:103AA0009A779CA223B9AC3FD9CEF753E3A5BB3F8D
:103AB000CDCCCCCCCCCCF03F80B582B001200190F5
:103AC00001F072FF019801F099FF02B080BD80B54E
:103AD00082B01220019001F067FF019801F08EFF83
:103AE00002B080BD2E494868086888608868C00FA9
:103AF00008730020486008607047C04680B582B0F7
:103B000058482649FFF70EFB019001A800784007AE
:103B100000281BD5FFE7012041055248FFF76EFB47
:103B2000002809D1FFE71E4948680A680023521E91
:103B300098410A60486008E0194948680A6800230B
:103B4000521C58410A604860FFE720E001A88078D5
:103B5000800600281AD5FFE742480421FFF74EFBF4
:103B6000002809D1FFE70E4948680A680023521C63
:103B700058410A60486008E0094948680A6800231B
:103B8000521E98410A604860FFE7FFE7FFE73548AB
:103B90000249FFF75BFA02B080BDC0460400200076
:103BA0008004202080B584B003900291019200200F
:103BB0000090FFE700980299884215DAFFE7009825
:103BC0000399421809488118805C4978FFF730F959
:103BD0000199009AD30FD21801239A438852FFE724
:103BE0000098801C0090E5E704B080BD9004202080
:103BF000014800687047C0466C05202080B584B03D
:103C0000012001908102009116480290FFF768FBA5
:103C100001990298C9020391FFF762FB009902988B
:103C2000FFF74AFA0198FFF7C7FE02980399FFF7DA
:103C300043FA04B080BDC04680B584B00120019035
:103C40008102039107480290FFF736FA0199029822
:103C5000C902FFF745FB02980399FFF741FB04B047
:103C600080BDC04600000A4070B586B0E8493548BE
:103C7000086001204005486005A900200870FFE7A2
:103C800005A80078002838DCFFE705A901910A782B
:103C90001C23029318465043DD4A03921418002057
:103CA00020720D781C466C43151901246C720E7835
:103CB0001D4675435519AC720D781C466C4314199A
:103CC000E0600D781C466C43141920610D781C4689
:103CD0006C43141960610D781C466C4314192076EE
:103CE0000C786343D21850760A78CA498854FFE7A3
:103CF0000598401C05A90870C2E704A900200870B7
:103D0000FFE704A80078002819DCFFE704A800906A
:103D1000007800F019F8009A034610781C210C4630
:103D20004443BB4804196372127851434118487ADE
:103D30008872FFE70498401C04A90870E1E706B008
:103D400070BDC04600200A4080B584B0014602A87C
:103D500001700078012804DBFFE703A90120087047
:103D600012E002A800781C214143A94840180190A4
:103D7000019908684968FFF757FA00900098411EBA
:103D8000884103A90870FFE703A8007804B080BD4C
:103D900080B582B001A900200870FFE701A8007873
:103DA00000280ADCFFE701A8007800F009F8FFE727
:103DB0000198401C01A90870F0E702B080BD000026
:103DC00080B586B0014605A801700078012801DBA6
:103DD000FFE71BE105A8009000781C2141438C48B7
:103DE00040180490FFF704FF014600980391007803
:103DF000FFF7AAFF049948720498007A01900428FA
:103E000000D9FFE00198810001A040588746C046D4
:103E1000253E0000493E0000853E0000313F000085
:103E2000753F00000498407A00280CD1FFE7049801
:103E3000807A012807D1FFE70499012008720398CE
:103E40000499C860FFE7E1E00498407A002814D1A3
:103E5000FFE703980499C968401A14280CD3FFE7B8
:103E600004990220087205A802786A490120885442
:103E7000049900204876FFE703E0049900200872C7
:103E8000FFE7C3E00498407A012832D1FFE70398A6
:103E90000499086103980499C968401A029002982D
:103EA000322810D3FFE70298C0087C280BD8FFE720
:103EB0000499087E401C0876039804994861049987
:103EC000042008720FE00298C0087D2806D3FFE79F
:103ED0000499002008720499087603E004990020F0
:103EE0000872FFE7FFE705A802784A4902208854D4
:103EF0001DE00498407EC007002817D1FFE7039813
:103F00000499C968401AC0087D280FD3FFE70499B7
:103F10000120487604990320087205A802783D49DB
:103F200004208854039804994861FFE7FFE76DE097
:103F30000498407A01280BD1FFE704990020087209
:103F40000499087605A8027832490220885410E0C6
:103F5000039804994969401AC82809D3FFE705A8BE
:103F600002782C4905208854039804994861FFE79A
:103F7000FFE74BE00498407A00282DD1FFE7049832
:103F8000807A012828D1FFE7039804990969401A2B
:103F90004B21890088420FD8FFE705A802781D4908
:103FA000062088540499002008760499012008729C
:103FB00003980499C8600EE005A80278154903200B
:103FC0008854049900200876049901200872039807
:103FD0000499C860FFE714E0039804990969401A3E
:103FE000FF212E3188420BD3FFE705A8027809494B
:103FF0000320885404990020087604990872FFE78A
:10400000FFE703E0049900200872FFE706B080BDD7
:10401000540420205004202080B582B00190019AE1
:1040200002200821FFF7BEFD02B080BD80B582B03E
:104030000E20019001F0CCFC019801F0F3FC02B0DD
:1040400080BD000080B58CB003460BA805900380AE
:104050000AAB198009A903910A803D490891002102
:104060000491405EFDF760F90499024603980792B7
:10407000405EFDF759F93749FDF744F8089903F018
:1040800047FB0499024605980692405E002814D129
:10409000FFE700210AA8405E00280ED1FFE70021BB
:1040A00009A8405E002808D1FFE70020029000F038
:1040B00053F9029800F018F947E00798069903F0C1
:1040C00063FAFDF7CFF82449019108600798069933
:1040D00003F082FBFDF7C6F8014601981F4A116004
:1040E0000068B149884205DBFFE71B497D20C0001D
:1040F0000860FFE7184800681949884204DCFFE7B8
:10410000154918480860FFE714480068A649884226
:1041100005DBFFE711497D20C0000860FFE70F487D
:1041200000680F49884204DCFFE70C490D4808602D
:10413000FFE7002100910848405E00F0D5F80099A3
:104140000648405E00F008F9FFE70CB080BDC046AD
:104150000000E64200007A445C0520206005202033
:1041600017FCFFFF18FCFFFF80B582B00220009013
:104170000021019100F0E0F80098019900F016F993
:1041800002B080BD70B588B00C4605460F980E99F8
:104190000D9E0C9E069505940492039302AA11703D
:1041A00001A908800698002804D0FFE70D98002890
:1041B00004D1FFE707A9FF2008702CE005980699B5
:1041C00008600498069948600398069988600C98DE
:1041D0000699C8600D9806990861029806990875B5
:1041E00001980699C88206998868C968FEF75AFF3F
:1041F000069908684968FEF755FF06980069FFF7B9
:1042000089FA069A1069D18A127DFFF73BFA07A94D
:1042100000200870FFE7002107A8405608B070BDD5
:1042200080B586B004AB187003A801800292029892
:10423000002804D1FFE705A9FF2008704EE004A87C
:104240000078019004283CD80198810001A04058D2
:104250008746C046694200007F4200009542000048
:10426000AB420000C1420000029908684968FFF7AC
:104270002DF802998868C968FEF714FF21E00299B9
:1042800008684968FEF70EFF02998868C968FFF759
:104290001DF816E0029908684968FFF717F80299B7
:1042A0008868C968FFF712F80BE002990868496846
:1042B000FEF7F8FE02998868C968FEF7F3FE00E091
:1042C000FFE703980299C882029A1069D18A127D89
:1042D000FFF7D8F905A900200870FFE7002105A81D
:1042E000405606B080BD000080B582B0014601A8EE
:1042F00001806A4600211170405E002808D5FFE762
:104300006946012008700198404201A90880FFE732
:10431000002101A8405E2449884205DBFFE77D209B
:10432000C00001A90880FFE76846007801A9098854
:1043300000F002F802B080BD80B582B00A460146A6
:1043400001A8017069460A8000780988324AFFF79F
:1043500067FF02B080BDC04680B582B0014601A8AB
:1043600001806A4600211170405E002808D5FFE7F1
:104370006946012008700198404201A90880FFE7C2
:10438000002101A8405E0849884205DBFFE77D2047
:10439000C00001A90880FFE76846007801A90988E4
:1043A00000F004F802B080BDE903000080B582B0DF
:1043B0000A46014601A8017069460A80007809880A
:1043C000174AFFF72DFF02B080BDC04610B588B078
:1043D0000020049003900121059102910D4807905F
:1043E0000190C80400900C488A040C4B06931946AF
:1043F000FFF7C8FE049A0599069B0798039202925C
:1044000001904804009006480A048749FFF7BAFE65
:1044100008B010BD00A08640E803202000200A401C
:104420001804202080B582B001A900200870FFE7A1
:1044300001A8007807280FDCFFE701A80178002019
:1044400000F0F4F80548802100F04DFAFFE70198EC
:10445000401C01A90870EBE702B080BD8E0020204F
:1044600080B584B003A901200090087081020291F8
:104470006D480190FEF734FF00990198C902FEF7DC
:104480002FFF01980299FEF7C4FE002804D1FFE730
:1044900003A900200870FFE70120C1026248FEF76F
:1044A0000BFE03A8007804B080BDC04680B584B080
:1044B0006420FFF763FAAE200021039100F094F925
:1044C0000399084600F090F90399102000F08CF948
:1044D00003994020019000F087F90399812000F0B2
:1044E00083F90399CF2000F07FF90399A12000F010
:1044F0007BF90399C82000F077F90399A620029070
:1045000000F072F90399A82000F06EF903993F209A
:1045100000F06AF90399D32000F066F90399084680
:1045200000F062F90399D52000F05EF9039980202C
:1045300000F05AF90399D92000F056F90399F120B7
:1045400000F052F90399DA2000F04EF90399122095
:1045500000F04AF90399DB2000F046F9019803992D
:1045600000F042F90399202000F03EF9039902205F
:1045700000F03AF903998D2000F036F903991420E0
:1045800000F032F90399A42000F02EF90298039963
:1045900000F02AF9FFF746FF0399AF2000F024F955
:1045A00004B080BD80B586B005A9087004A90020BC
:1045B0000870FFE704A80078072833DCFFE7012034
:1045C000C1021948FEF778FD05A80078000600280A
:1045D00006D5FFE7012081021348FEF781FE05E0C2
:1045E000012081021048FEF767FDFFE701200190DE
:1045F000FFF7E2F90198C10203910B480290FEF720
:104600006FFE0198FFF7D8F902980399FEF754FD61
:104610000598400005A90870FFE70498401C04A90C
:104620000870C7E706B080BD00000A4080B584B0BE
:1046300000910246009803A90A7002AA1070029A1B
:10464000B03201A802700A7812091032427009785B
:104650000F2211408170032100F0FFF804B080BDEB
:1046600010B58CB00BAC20700AA8017009A80270BC
:1046700008A8037007AA002111700278520806AB3F
:104680001A7005AA11800078082804D1FFE704A950
:104690000620088012E008A801780191C80802905D
:1046A0004907401C0029039001D10298039001980A
:1046B00003994008484304A90880FFE70998203877
:1046C00007A908700BA800780AA90978FFF7AEFFC0
:1046D00005A900200880FFE705A8008804A909882B
:1046E000884242DAFFE705A8008806A90978FBF7A7
:1046F00081FE00290ED1FFE708A80078082809D01C
:10470000FFE70BA800780AAB19784A1C1A70FFF76C
:104710008DFFFFE708A8007808280DD1FFE707A85C
:104720000078062141431348401805A90988405CD8
:10473000012100F059F812E008A8007810280CD1E7
:10474000FFE707A8007801010948401805A9098872
:10475000405C012100F048F800E006E0FFE7FFE7D9
:104760000598401C05A90880B6E70CB010BDC046EE
:10477000647D00003C7B0000B0B586B005AC2070C5
:1047800004A80170039202A8037001A90020087018
:10479000FFE7039801A90978405C002822D0FFE7D1
:1047A00005A8007804A90978039A01AD2B785C1C50
:1047B0002C70D25C02AB00931B78FFF751FF00987E
:1047C0000078082805D1FFE70598801D05A9087025
:1047D00007E002A8007841080598401805A908706C
:1047E000FFE7D6E706B0B0BD80B582B001AA107071
:1047F00068460170FFF702FA7820FFF7D3FEFFF753
:104800002FFE002803D0FFE7FFF716FA23E06846E3
:104810000078002804D0FFE74020FFF7C3FE03E044
:104820000020FFF7BFFEFFE7FFF71AFE002803D0C6
:10483000FFE7FFF701FA0EE001A80078FFF7B2FEEC
:10484000FFF70EFE002803D0FFE7FFF7F5F902E0BF
:10485000FFF7F2F9FFE702B080BD80B584B00390A6
:1048600002A801700078002801D1FFE739E0FFF7C6
:10487000C5F97820FFF796FEFFF7F2FD002803D078
:10488000FFE7FFF7D9F92CE00020FFF78BFEFFF7D9
:10489000E7FD002803D0FFE7FFF7CEF921E001A9EB
:1048A00000200870FFE701A8007802A90978884273
:1048B00014DAFFE7039801A90978405CFFF772FE5C
:1048C000FFF7CEFD002803D0FFE7FFF7B5F908E0BA
:1048D000FFE70198401C01A90870E4E7FFF7ACF975
:1048E000FFE704B080BD80B584B0039002A80180CA
:1048F0000088002801D1FFE727E0FFF77FF9782043
:10490000FFF750FEFFF7ACFD4020FFF74BFEFFF72F
:10491000A7FD01A900200880FFE701A8008802A9DF
:10492000098888420EDAFFE7039801A90988405CEC
:10493000FFF738FEFFF794FDFFE70198401C01A93F
:104940000880EAE7FFF778F9FFE704B080BD80B59B
:1049500088B006900698002803D1FFE70020079052
:104960001DE0069904910868029008690190486862
:10497000496902F0CDFE019902460298039202F0C5
:10498000C7FE039902F000FE0499059088688969C2
:1049900002F0BEFE059902F0F7FD0790FFE70798C9
:1049A00008B080BD10B58EB00DAC20800C910B927C
:1049B0000A93002109910D9A08A80280405EFCF735
:1049C000B3FC014630480790006802F0DDFD014667
:1049D0000798016000682D4901F099FE002804D174
:1049E000FFE7294929480860FFE727480068284968
:1049F00001F077FE002804D1FFE72349244808602E
:104A0000FFE70021039108A8405E0490FCF78CFCAE
:104A100001900C9800900B981B49096802F078FEF1
:104A2000009902460198029202F072FE029902F089
:104A3000ABFD039A01460498059116490691895EDB
:104A4000401AFCF771FC0A9902F062FE059902F027
:104A50009BFD069909900898088009980E4901F075
:104A600056FE002803D1FFE70B480990FFE709989D
:104A70000A4901F036FE002803D1FFE707480990F4
:104A8000FFE709980EB010BD100120200000FA4386
:104A90000000FAC31401202000409C4500409CC542
:104AA00010B584B0069C0390029101920093039884
:104AB000002801D1FFE713E00298039908600198EC
:104AC0000399486000980399886006980399C86024
:104AD0000399002008610399486103998861FFE701
:104AE00004B010BD80B59EB0504800681D9050487D
:104AF0000078C00700281AD0FFE753480A900090BA
:104B0000544858490B9100230C931A46FFF7C8FFED
:104B10000A980B990C9B00904F481A46FFF7C0FF6C
:104B20000C98434908701D98464908607CE00020B5
:104B30001C901B903F480078C00700280DD1FFE76C
:104B400000213D484056002807D1FFE73B48006858
:104B50001C903B4800681B903AE036480078C0073C
:104B6000002834D0FFE73349002008701D983549EC
:104B700007910968401AFCF7DFFB3349FCF7C2FADA
:104B80001A9032480690324905910A6801681A9BCA
:104B90003048089000F068F8059906984A6841681E
:104BA0001A9B2D48099000F05FF8079A08981D9904
:104BB0001160FFF7CCFE01460120C00702F00CFE99
:104BC000014609981C91FFF7C2FE1B90FFE7FFE723
:104BD0002248039041681B9802F0D6FC01460398D6
:104BE0001B9101681C9802F0CFFC1C901C98134983
:104BF00008601B98124908601C98FCF759FA01914B
:104C00000090174A0DA804903221FBF771FB049A1B
:104C1000002004210823FFF7AFFD1B991C9800F02A
:104C200085FE00F0B5FEFFE71EB080BD6C052020BC
:104C30000D00202049042020040020201C012020F9
:104C4000180120202001202000007A446405202043
:104C5000700420202401202040012020DC0120209D
:104C6000C8830000CDCC4C3E10B588B007900691AB
:104C7000059204930798002807D0FFE704980021C5
:104C800001F03AFD002801D1FFE740E007980069F4
:104C900003900698059902F09FFD07990861079A0D
:104CA0000292106904995269019202F031FD019952
:104CB00002F06AFC0299486107994869C96801F0E5
:104CC00026FD002804D1FFE70799C868486112E073
:104CD00007994869C9680122D207514001F001FDD6
:104CE000002807D1FFE70799C8680122D207504082
:104CF0004861FFE7FFE7079800900069039902F019
:104D00006BFD0499FCF7FEF900998861FFE708B094
:104D100010BD80B582B00190019A0A201021FEF7E3
:104D200041FF02B080BD000085B0039002910020D9
:104D300001900090FFE7009807280EDCFFE700993C
:104D40001148405C002804D1FFE70198401C019005
:104D5000FFE70098401C0090EDE701980299884217
:104D600009DCFFE701980399884204DBFFE704A907
:104D70000120087003E004A900200870FFE704A8E0
:104D8000007805B07047C0467200202082B00090C5
:104D90000098002803D1FFE70020019002E00348BB
:104DA0000190FFE7019802B07047C0460048E80153
:104DB00080B584B0029001910198002803D1FFE7EB
:104DC000002003901AE00298002101F08AFC0028DC
:104DD00006D1FFE702980121C90748400290FFE78A
:104DE0000298019900914969FCF78CF90099896949
:104DF00002F08EFCFCF75CFA0390FFE7039804B026
:104E000080BD10B588B004460A98069405910492B6
:104E1000039302A908700698002804D0FFE70398BE
:104E2000002804D1FFE707A9FF20087029E00598B2
:104E30000699086004980699486003980699886066
:104E4000029806990873069900200190486208624A
:104E5000069AC143916206994863086306990868F7
:104E60004968FEF733F906988068FEF75DFC019902
:104E7000069A9068127BFEF705FC019807A9087056
:104E8000FFE7002107A8405608B010BD10B585B057
:104E9000039002A80170019200930398002804D1A6
:104EA000FFE704A9FF2008700CE00298039908743A
:104EB00001980399486100980399886104A900202A
:104EC0000870FFE7002104A8405605B010BD00009F
:104ED00080B588B0069005910698002805D0FFE7B8
:104EE00006988068002804D1FFE707A9FF20087012
:104EF00078E00598FCF7DCF80A4606994A620862F1
:104F000005980121C9078843002101F0DFFB002833
:104F10000BD0FFE7069988680A7B00210091FEF715
:104F2000B1FB009807A908705CE00598002101F02A
:104F3000EEFB002812D1FFE70698007C012806D17D
:104F4000FFE7069908684968FEF7D4F905E0069975
:104F500008684968FEF7BAF8FFE716E00698007C93
:104F6000012806D1FFE7069908684968FEF7AEF800
:104F700005E0069908684968FEF7BCF9FFE705985F
:104F80000121C90748400590FFE706988068FFF7B0
:104F9000FDFE049006990598FFF70AFF0390012093
:104FA000400202900498039A0299514301F0EAF8F2
:104FB000401E019001A84088002803D0FFE70C485C
:104FC0000190FFE7069880680199FEF78DFB069A2D
:104FD000906801994908127BFEF754FB07A900204D
:104FE0000870FFE7002107A8405608B080BDC04602
:104FF000FFFF000080B588B006900698002804D115
:10500000FFE707A9FF20087039E00698806A401C76
:10501000002808D1FFE71C4800680699886207A9A4
:10502000002008702BE0184800680590069904914C
:10503000086A0090486A01900598896A401AFBF74F
:1050400010FF024600980B460199FBF70DFF049AEA
:10505000136B0293526B03920C4A0D4BFBF704FF48
:10506000029A039BFBF780FC0A4604994A63086393
:1050700005980699886207A900200870FFE70021BB
:1050800007A8405608B080BD6C052020FCA9F1D2CD
:105090004D62503F80B582B00B490C480190FEF73D
:1050A000DFFB01980A49FEF77BFB01980021FEF720
:1050B000E0FB0198D0211522FEF7ACFB0198FEF72A
:1050C0003FFB02B080BDC0467483000000801040EA
:1050D0007683000080B58EB0262006210291FEF76F
:1050E0007FF801200990410405917C480A90FEF761
:1050F00003F802992720FEF773F809990A988904A2
:10510000FDF7FAFF03200521FEF76AF809990A98CE
:105110004907FDF7F1FF04210846FEF761F80999F8
:105120000A988907FDF7E8FF0B2002210191FEF79D
:1051300057F801990C20FEF745F801993420FEF745
:105140004FF801993520FEF73DF8099800230693A2
:1051500000930204039231201946FEF71DF8059AC8
:10516000069909980091C30404933020FDF7E6FFE7
:10517000039A069B00931E201946FEF70DF8039A2A
:10518000069B00931F201946FEF706F82020089082
:10519000FDF7F8FF0E20FDF7F5FF039A069B00933D
:1051A00025201946FDF7F8FF039A069B00932A2055
:1051B0001946FDF7F1FF039A069B00932B20194631
:1051C000FDF7EAFF039A069B00932C201946FDF792
:1051D000E3FF0298049B069A00921146FDF7AEFF8A
:1051E000049B069A00922D201146FDF7A7FF039A13
:1051F000049B069900911620FDF7A0FF039A049BDB
:10520000069900911720FDF799FF039A049B0699D0
:1052100000911820FDF792FF039A049B06990091D4
:105220001920FDF78BFF039A049B0699009121201A
:10523000FDF784FF039A049B069900913820FDF73F
:105240007DFF039A049B069900913220FDF776FFBB
:10525000039A049B069900912220FDF76FFF059A9F
:10526000069B009314201946FDF796FF059A069BAE
:10527000009315201946FDF78FFF0A9843218902F4
:105280000791FDF7F1FE07990A98FDF735FF0A9897
:105290001021FDF7F9FF09990A988902FEF744F8F1
:1052A00008990A98FDF7E2FF09990A98C902FEF7E2
:1052B0002DF80A980A490B91FDF7BCFE0A980B9944
:1052C000FDF70EFFC2480C9006490D91FDF7CCFE8C
:1052D0000C980D99FDF710FF0EB080BD00000A403C
:1052E0000400200004C04F0080B582B01049BD48C2
:1052F0000190FEF7B5FA01980E49FEF751FA0198B0
:1053000000210091FEF7B5FA019811211722FEF74E
:1053100081FA019803218902FEF71EFA00990E20F6
:1053200000F096FB0198FEF70BFA02B080BDC04674
:10533000808300008283000080B586B01F49A548A5
:105340000590FEF7A7F905981D49FEF76BF805983B
:105350000023029319461A46FEF7AAF9029B059804
:10536000009319461A46FEF781F9029A05981146EC
:10537000FEF76EF9029A05987D2189000391FEF7E8
:1053800081F9029B059801210491009119461A4662
:10539000FEF76CF90299049A0598FEF759F90399FA
:1053A000049A0598FEF76EF90598FEF70DF8059832
:1053B0000321FEF743F906B080BDC0468C83000090
:1053C0009083000080B584B0144983480390FEF7B1
:1053D00061F903981249FEF725F803980023029318
:1053E00019461A46FEF764F9029B03980093194682
:1053F0001A46FEF73BF9029A03981146FEF728F980
:10540000029A03981146FEF73DF90398FDF7DCFF79
:1054100003980121FEF712F904B080BD98830000C3
:105420009C83000080B584B016496C480390FEF759
:1054300031F903981449FDF7F5FF03980122029210
:10544000510392028023FEF733F9029903980091E9
:105450000023019319461A46FEF708F90199029AAA
:105460000398FEF7F5F80199029A0398FEF70AF9F6
:105470000398FDF7A9FF03980221FEF7DFF804B0B7
:1054800080BDC046A4830000A883000080B582B020
:1054900000200190FDF764FF0198FDF779FFFDF70B
:1054A0004FFFFDF753FF0198FDF780FF0198FDF7CF
:1054B00063FF0199012000F0CBFA02B080BD80B5F6
:1054C0007D20000200F0D6F880BD000080B582B0DB
:1054D0000A498D480190FEF7DDF801980849FEF76A
:1054E00025F801980121FDF779FF1220032100F032
:1054F000AFFA0198FDF768FF02B080BDB0830000ED
:10550000B483000080B500F023F8FFF7E3FDFFF758
:10551000BDFFFFF711FFFFF755FFFFF783FFFFF711
:10552000D5FFFFF7B7FDFFF7DFFEFFF7C8FF05491F
:105530009C2200208854044988540449B822885485
:1055400080BDC046EC0120208C0220202C032020AE
:1055500080B588B098480090FDF77CFEEF48019038
:10556000FDF778FE1B480290FEF760F8EE480390C6
:10557000FEF75CF8EA480490FEF758F86248059098
:10558000FEF754F816480690FEF738F99148079050
:10559000FEF734F90098FDF7BBFD0198FDF7B8FD63
:1055A0000298FDF729FF0398FDF726FF0498FDF701
:1055B00023FF0598FDF720FF0698FEF7DBF8079814
:1055C000FEF7D8F81020FDF71BFD08B080BDC046DF
:1055D00000200A4000A0864000808640000009406C
:1055E000008010400020104080B582B000210D489E
:1055F0004056002813D1FFE70B4800908088FBF746
:105600009BFE01460098094A01921160C1880F2053
:105610004001401AFBF788FE01994860FFE702B09D
:1056200080BDC046040020207A0020207004202085
:1056300080B584B000210C484056002811D1FFE706
:10564000684600F0F9FA019A009902A800F0A4FC5B
:1056500006490398486002980860054901200870CF
:10566000FFE704B080BDC0460C0020206405202068
:105670004904202080B584B002900298401E000E9C
:10568000002803D0FFE70120039011E00298401E9C
:105690000949086000200190C043032100F0D8F9B7
:1056A000019806490860064A072111600390FFE748
:1056B000039804B080BDC04614E000E018E000E0AC
:1056C00010E000E080B509480168491C0160614AAA
:1056D0001168491C116000680A2806D1FFE7FEF72F
:1056E00057FB024900200860FFE780BD70012020C1
:1056F00080B50548FDF78CFE012803D1FFE7FEF7D2
:10570000F1F9FFE780BDC0460000864080B584B057
:105710000390824800904021FDF791FD01460098DA
:105720004A425141039AD1718021FDF788FD01461B
:1057300000984A425141039A917101210191090255
:10574000FDF77DFD01990246009853425A41039BA3
:105750005A714902FDF773FD014601984A425141D1
:10576000039A1171010314480290FDF768FD019935
:105770000246009853425A41039BDA708906FDF7AE
:105780005EFD01990246009853425A41039B9A706C
:10579000C905FDF754FD01990246029853425A414A
:1057A000039B5A704903FDF74AFD41424841039962
:1057B000087004B080BDC04600000A4080B50548AE
:1057C000FDF7E4FF0B2803D1FFE7FDF7F9FA00E04E
:1057D000FFE780BD0020104010B58AB01D4800686A
:1057E000099009981C490968401A0A282FD3FFE735
:1057F0000998194900910968401AFBF79DFD17495E
:1058000001F086FF0099089009980860FEF718F9E2
:10581000039004910898FBF74BFC0190029110480B
:1058200007900068FBF744FC019A029B044603982A
:1058300005940C4604990694FBF716FB059A069B03
:10584000FBF792F8FAF7D6FE07990860FFE70AB06F
:1058500010BDC0466C052020D80120206F12833A6D
:105860005805202080B586B00590049103920293DC
:10587000039800214056032801D1FFE71AE005985C
:105880000499FDF77AFA00280ED0FFE70298016824
:105890000220012200920029019001D0009801907D
:1058A00001980399087005E0039900200870029997
:1058B0000860FFE706B080BD10B588B001200290F7
:1058C000010416480390FDF7EDFC03980421FDF751
:1058D000E9FC029A0399009231480190D203104BDF
:1058E000FFF78FFA029901982122530606930D4A79
:1058F0000592FFF7CBFA029A0399002004900090DA
:10590000284807909203084BFFF77BFA0499059A01
:10591000069B0798FFF7BAFA08B010BD00200A40AE
:10592000000009406666E63F0080864080B584B08E
:10593000039002911B49086B496B0022124B00F047
:10594000BAFE00280AD1FFE71649086B496B00220E
:105950000E4B00F0A5FE00280AD1FFE711480021F8
:105960000191FFF7B5FA01990D48FFF7B1FA08E088
:1059700003990B48FFF7ACFA02990A48FFF7A8FA17
:10598000FFE704B080BDC04600804640008046C0AE
:1059900080B50348FFF72EFB0248FFF72BFB80BDC5
:1059A000780520201805202081B001466846017046
:1059B00000214056002809D4FFE7684601781F20DF
:1059C0000140012088400C490860FFE701B07047A2
:1059D00081B001466846017000214056002809D474
:1059E000FFE7684601781F200140012088400249F6
:1059F0000860FFE701B0704780E200E081B0014637
:105A00006846017000214056002809D4FFE7684627
:105A100001781F200140012088400C490860FFE701
:105A200001B0704781B001466846017000214056C0
:105A3000002809D4FFE7684601781F2001400120B3
:105A4000884002490860FFE701B0704700E100E0CC
:105A500070B582B0024601A8027000910021405644
:105A6000002816D4FFE7002401A908570322D343D6
:105A70001840174A805809578C07E50EFF24AC40A0
:105A8000A043009CA401E4B2AC40204319408850DC
:105A90001AE001A908780F24204008380322D343D4
:105AA00018400A4A8058002549578D07EE0EFF25F9
:105AB000B540A843009DAD01EDB2B540284321405B
:105AC000083919408850FFE702B070BD1CED00E0B6
:105AD00000E400E080B592B0E5480068C117890F86
